:100BA800EF1FAC0670011E4C600A7D027CEFDCFE74
:040BB800DDFC80ECF4
:010BBC002216
:0B0BFB00EF1FAC0670011E4C70F622CC
:0E0BE00053890F438910E4F58DF58BC28E22E8
:10095E00D2967F027E00120BFBC2963097FDD28E8E
:10096E002097FDC28EAF8DEFFEAD8B7C00E42DF592
:10097E006DEC3EF56CFCAD6DE41201B97B9A7A9983
:10098E0079D9783F12000EE4FBFA79C87842120149
:10099E00171201F28E6E8F6FE4F58DF58BAE6EAF82
:0209AE006F22B6
:100B5F0044495354414E434528636D293A00414C53
:0B0B6F0041524D494E472873293A00BF
:10088E004200140000420018000142000E00014216
:04089E000016000040
:10053E00120BBD120BE0120ADB7BFF7A0B795F7D8B
:10054E00017F01120B017BFF7A0B796D7D017F021A
:10055E00120B01A2B0E4FF33900010CFF0A3EFF026
:10056E00900018E0FEA3E0FF900010E06E7003A371
:10057E00E06F70030206587F327E00120BA89000C7
:10058E0010E07002A3E07065900018E07004A3E024
:10059E0064017059120B7A900016EEF0FAA3EFF088
:1005AE00FB7556047D0D7F02120B42120BEE7F641B
:1005BE007E00120BA8900010E0FFA3E0900018CF71
:1005CE00F0A3EFF090000EE07002A3E070047F0144
:1005DE0080027F0090000EE4F0A3EFF0900015E093
:1005EE0004F07063900014E004F0020561900010B6
:1005FE00E07004A3E064016003020561900018E05E
:10060E007002A3E06003020561120B7A900016EEF1
:10061E00F0FAA3EFF0FB7556047D0D7F02120B422C
:10062E00120BEE7F647E00120BA8900010E0FFA369
:10063E00E0900018CFF0A3EFF0900015E004F070FA
:10064E0006900014E004F0020561900010E07004C2
:10065E00A3E064016003020561900018E07004A33A
:10066E00E06401600302056190000EE07002A3E0F9
:10067E00700302056112095E900012EEF0A3EFF016
:10068E001208FA900012E0FAA3E0FB7556037D0EF5
:10069E007F01120B42900012E0FEA3E0FFA3E0FCEC
:1006AE00A3E0FD120315900016EEF0FAA3EFF0FB97
:1006BE007556047D0D7F02120B42E4900014F0A3D8
:0406CE00F0020561D0
:1006D2001402180219021402180219021402180252
:1006E2001402180219021402180219021402180242
:1006F2001402180219021402180219021402180232
:10070200140219021B02140219021B02140219021A
:10071200140216021B02140216021B021402160213
:1007220014021602190214021602160219021D02FE
:10073200160219021D0216021902160219021B02E2
:10074200160219021B0216021902160219021B02D4
:10075200160219021B0216021902140216021902CB
:1007620014021602190214021602140219022002BD
:1007720014021902200214021902160219021B02A3
:10078200160219021B02160219021D021C021D0288
:100792001C021D0218021C021902160400020D029C
:1007A200110216021804000211021502180219049D
:1007B20000041D021C021D021C021D0218021C0262
:1007C2001902160400020D02110216021804000298
:1007D20011021902180216040002180219021B0261
:1007E2001D04000214021E021D021B04000212025A
:1007F2001D021B021904000211021B021902180C2D
:1008A200204A080000F88CF8F3F95BF9B8FA15FA57
:1008B20067FAB9FB04FB4BFB90FBCFFC0CFC44FC3E
:1008C20079FCACFCDCFD09FD34FD5CFD82FDA6FD7E
:1008D200C8FDE8FE06FE22FE3DFE56FE6EFE85FEC9
:1008E2009AFEAEFEC1FED3FEE4FEF4FF034200090F
:0708F200000042000B0000B2
:100ADB005389F0438901758A18758CFCC28DD28CB1
:100AEB00D2A9D2AFD2B9E4900000F0A3F0A3F0905A
:060AFB000007F0A3F02249
:100315008E528F538C548D55C3E552940050030271
:1003250003C4E5539414E552940040030203C4E565
:10033500554554700A900007E07002A3E0600FE491
:10034500900000F0900009F0A3F0A3F0A3F0900056
:1003550000E09006D29390000DF0900000E004F0CC
:10036500E09006D29375F07DA4FFAEF0120BA89035
:100375000000E09006D29375F07DA4FFAEF09000EA
:100385000AE02FF0900009E03EF0E0FEA3E0FF7CDC
:10039500037DE81202B2A3EEF0A3EFF0900000E0B7
:1003A50004F0E0C394404002E4F0C28C7F057E0077
:1003B500120BA8D28CE4900007F0A3F0020535C318
:1003C500E5539414E55294005003020472E55394E6
:1003D50028E55294004003020472E5554554700C1B
:1003E500900007E07004A3E06401600FE490000151
:1003F500F0900009F0A3F0A3F0A3F0900001E090C5
:1004050007129390000DF0900001E004F0E09007D2
:10041500129375F07DA4FFAEF0120BA8900001E0D9
:100425009007129375F07DA4FFAEF090000AE02FBF
:10043500F0900009E03EF0E0FEA3E0FF7C037DE8DC
:100445001202B2A3EEF0A3EFF0900001E004F0E099
:10045500C3947A4002E4F0C28C7F057E00120BA89B
:10046500D28C900007E4F0A304F0020535C3E553F0
:100475009428E55294005003020520E553943CE589
:100485005294004003020520E5554554700C900038
:1004950007E07004A3E06402600FE4900002F090AE
:1004A5000009F0A3F0A3F0A3F0900002E090078C00
:1004B5009390000DF0900002E004F0E090078C931B
:1004C50075F07DA4FFAEF0120BA8900002E0900736
:1004D5008C9375F07DA4FFAEF090000AE02FF090AC
:1004E5000009E03EF0E0FEA3E0FF7C037DE8120298
:1004F500B2A3EEF0A3EFF0900002E004F0E0C394A5
:10050500764002E4F0C28C7F057E00120BA8D28CE7
:10051500900007E4F0A37402F08015E4900000F069
:10052500A3F0A3F0C28CD2A5900007F0A37403F04A
:0905350090000BE0FEA3E0FF22A0
:03000B000209B037
:1009B000C0E0C083C082C0D075D000C000C004C0F9
:1009C00006C007308C2490000DE0FF25E02408F8D5
:1009D000E6FC08E64C6015EF25E02408F8E6FE0882
:1009E000E6F58AEEF58CB2A58002D2A5D007D00636
:0D09F000D004D000D0D0D082D083D0E0322F
:100B7A00C28CD2A5E4900009F0A3F0A3F0A3F090F0
:080B8A00000BE0FEA3E0FF22D6
:060BD100C2A58F80D2A72F
:080BD7007F027EEFDEFEDFFC71
:010BDF0022F3
:0A0C0600C2A6120BD1C2A7020BD741
:100B2400CFCDCFCECCCE1202B27C007D0A1202B25F
:040B3400ED2430FF7D
:0A0B3800D2A6120BD1C2A7020BD700
:100B9200AE07BE0104ED148006BE0209ED243F44F7
:060BA20080FF120C062288
:100BBD007F38120C067F0C120C067F06120C067F76
:040BCD0001020C060F
:0A0C1000AC03120B92AF04020B3884
:060B01008B528A53895457
:100B0700120B92E4FDAB52AA53A9548D8275830050
:0C0B1700120273FF6006120B380D80E91B
:010B230022AF
:0C0AA8007F0AEA24FFFDE434FFFC7E001E
:080AB4008E578F588C598D5AA2
:100ABC007F017E00E4FBEBC3955AE5596480F87422
:0E0ACC008098500AAC57AD581202A00B80E87B
:010ADA0022F9
:040B42008A548B55F1
:100B4600120B92AA56EAD39400400D120AA8AC548E
:080B5600AD55120B241A80EDCD
:010B5E002274
:1009FD00120B92C3EA64809480400B7F2B120B384C
:100A0D008A608B61800E7F2D120B38C3E49BF561DC
:100A1D00E49AF560AA5FEAD39400400D120AA8ACDF
:090A2D0060AD61120B241A80ED8A
:010A3600229D
:040A37008A648B65DD
:100A3B00120B92AA66EAD3940040297F10120AAADD
:100A4B00AC64AD65CFCDCFCECCCE1202B2EF540F8E
:100A5B00FEC3940AEE5004243080022437FF120B9D
:040A6B00381A80D1E4
:010A6F002264
:040A70008A698B6A9A
:100A7400120B92AA6BEAD394004028EA24FFFDE407
:100A840034FFFC7F027E00120AB4AC69AD6ACFCD9C
:100A9400CFCECCCE1202B2EF54012430FF120B3869
:030AA4001A80D2E3
:010AA700222C
:1008FA00C3EE94004013EF9414EE9400500BC2A080
:10090A00C2A1C2A2C2A3C2A422C3EF9414EE94004D
:10091A004010EF9428EE94005008C2A0C2A1C2A2CF
:10092A008017C3EF9428EE94004013EF943CEE94A2
:10093A0000500BC2A0D2A1D2A2D2A3D2A422C3EF4A
:10094A00943CEE9400400CD2A0D2A1D2A2D2A3D25F
:04095A00A4D2A5225C
:0D0BEE00D2A0D2A1D2A2D2A3D2A4D2A5221D
:10000E00EC4D6011E8497017ED33EC3304600DE4EC
:10001E00FCFFFEFD22E933E8330470F802025E12A3
:10002E00022958046009E4CC2481500628500902A4
:10003E000268284003020265C0E0EB4A7044B980B2
:10004E0006D0E0FB020254EF4E701CBD8008EBFFA1
:10005E00EAFEE9FD80EBE98DF0A4FEE5F00200F783
:10006E00E9CDF9EAFEEBFFEF89F0A4FCE5F0CE89CD
:10007E00F0A42EFFE435F0CD89F0A42DFEE435F08A
:10008E008067EF4E7005BD80D780C3EF8BF0A4ACB8
:10009E00F0EE8BF0A42CFCE435F0F8EF8AF0A42CF3
:1000AE00E5F038FCE433CB8DF0A42CFCE5F03BF806
:1000BE00EE8AF0A42CFCE5F038F8E433CF89F0A4F6
:1000CE002CFCE5F038CF3400CE89F0A42FFFE5F0FC
:1000DE003EFEE433C98DF0A42EFEE5F039CD8AF054
:1000EE00A42FFFE5F03EFEE43DFD33D0E0FB5007CC
:1000FE000BBB000F020268EC2CFCEF33FFEE33FE5D
:06010E00ED33FD0202408A
:10011400020268EC5D046005E85904700302025EA3
:10012400120229580460F6EC4860F2EC7004FDFEFB
:10013400FF22C860DB2481C85009C39860025006BE
:100144000202659850CAF582E9294B4A7005AB82D0
:1001540002025475F0007C1A7880C3EF9BEE9AED8E
:1001640099400DC3EF9BFFEE9AFEED99FDE842F036
:10017400DC23ACF0D0E0FFD0E0FED0E0FDAB822089
:10018400E7101BEB60BAEC2CFCEF33FFEE33FEED13
:1001940033FD020240E803F830E705C0F075F000D3
:1001A400EF2FFFEE33FEED33FD40B830E7C280AAF7
:1001B40075F020800E75F010800575F0087D007EC6
:1001C400007F003392D530D503120307EC3340107F
:1001D400EF33FFEE33FEED33FDEC33FCD5F0ED22CF
:0E01E400E5F0247EA2D513CC92E7CDCEFF220B
:1001F200EDD2E7CD33EC3392D524814006E4FFFE05
:10020200FDFC22FCE4CFCECDCC24E0501174FF8063
:10021200EDC3CC13CCCD13CDCE13CECF13CF047000
:07022200F030D5DE020307F6
:10022900E9D2E7C933E833F892D5EDD2E7CD33EC1B
:0702390033FC5002B2D52294
:10024000EC30E7100FBF000C0EBE00080DBD00041F
:100250000BEB6014A2D5EB13FCED92E7FD2274FFCB
:10026000FCFDFEFF22E480F8A2D574FF13FC7D8024
:03027000E480EF38
:03000000020802F1
:0C080200787FE4F6D8FD75816F0208498C
:10027300BB010CE58229F582E5833AF583E0225040
:1002830006E92582F8E622BBFE06E92582F8E2228A
:0D029300E58229F582E5833AF583E49322A4
:1002A000EF8DF0A4A8F0CF8CF0A428CE8DF0A42E72
:0202B000FE222C
:1002B200BC000BBE0029EF8DF084FFADF022E4CC30
:1002C200F875F008EF2FFFEE33FEEC33FCEE9DECF9
:1002D200984005FCEE9DFE0FD5F0E9E4CEFD22ED3F
:1002E200F8F5F0EE8420D21CFEADF075F008EF2F89
:1002F200FFED33FD4007985006D5F0F222C398FD7A
:050302000FD5F0EA2216
:0E030700C3E49FFFE49EFEE49DFDE49CFC2207
:10080E0002053EE493A3F8E493A34003F68001F2BD
:10081E0008DFF48029E493A3F85407240CC8C333EB
:10082E00C4540F4420C8834004F456800146F6DFBA
:10083E00E4800B010204081020408090088EE47EB4
:10084E00019360BCA3FF543F30E509541FFEE493AF
:10085E00A360010ECF54C025E060A840B8E493A376
:10086E00FAE493A3F8E493A3C8C582C8CAC583CAA1
:10087E00F0A3C8C582C8CAC583CADFE9DEE780BE59
:0108F90000FE
:00000001FF
